:020000040800F2
:100000003813002035020008F1620008F1450008AD
:10001000ED620008C71B0008B17200080000000074
:10002000000000000000000000000000356B000828
:10003000191C000800000000EF690008A16B00080F
:100040004F0200084F0200084F0200084F0200084C
:100050004F0200084F0200084F0200084F0200083C
:100060004F0200084F0200084F0200084F0200082C
:100070004F0200084F0200084F0200084F0200081C
:10008000CD1B0008DD1B00084F0200084F020008CE
:100090004F0200084F0200084F0200084F020008FC
:1000A0004F0200084F0200084F0200084F020008EC
:1000B000116C0008216C00084F0200084F02000874
:1000C0004F0200084F0200084F0200084F020008CC
:1000D0004F0200084F020008A17200084F020008FA
:1000E0004F0200084F0200084F02000800F002F81B
:1000F00000F090F80AA090E8000C82448344AAF132
:100100000107DA4501D100F085F8AFF2090EBAE82F
:100110000F0013F0010F18BFFB1A43F0010318473B
:10012000B09D0000D09D0000103A24BF78C878C16F
:10013000FAD8520724BF30C830C144BF04680C60ED
:10014000704700000023002400250026103A28BF35
:1001500078C1FBD8520728BF30C148BF0B60704739
:100160006E2900F0DF81702900F02183662908F0F4
:10017000FE87652908F0FB87672908F0F887612961
:1001800008F0F78703681B0A28BF41F0800169293E
:1001900000F08C81642900F08981752900F0868146
:1001A0006F2900F0AE82782900F0ED82E92900F095
:1001B0004982E42900F04682F52900F04382EF29C4
:1001C00000F0AB82F82900F0EC820368DB0928BF5D
:1001D00041F08001632900F0F387732900F0F8876C
:1001E000E32901F00380F32901F008800020704723
:1001F0001FB501F059F804000020002107F0F2FFBC
:10020000401C60600020002107F0D6FFE0601FBDA9
:1002100010B510BD01F01AF81146FFF7E9FF07F01D
:10022000ADFA01F0F7F803B4FFF7F2FF03BC01F0F9
:10023000FBF800000948804709480047FEE7FEE751
:10024000FEE7FEE7FEE7FEE7FEE7FEE7FEE7FEE786
:1002500004480549054A064B704700000F6C00082A
:10026000ED000008380D002038130020380F002062
:10027000380F0020B2F120030AD5C2F1200320FA82
:1002800002F001FA03F321FA02F140EA0300704799
:1002900021FA03F04FF00001704700001CB50C4636
:1002A000064B7B4469460090204600F054F9044612
:1002B0000020694600F062F920461CBDD70200000C
:1002C00010B5431C02E010F8011B71B18107FAD18F
:1002D0004FF0013202C88C1A8C4314EAC211F9D0D3
:1002E000C01A0A0603D0C01E10BDC01A10BD0A04F1
:1002F00001D0801E10BD0902FCD0401E10BD4FF081
:10030000000200B5134694469646203922BFA0E865
:100310000C50A0E80C50B1F12001BFF4F7AF090771
:1003200028BFA0E80C5048BF0CC05DF804EB890062
:1003300028BF40F8042B08BF704748BF20F8022BA5
:1003400011F0804F18BF00F8012B70474FF0013CAF
:1003500050F8042B51F8043B9A4221D1A2EB0C0334
:10036000934313EACC1317D150F8042B51F8043BF4
:100370009A4215D1A2EB0C03934313EACC130BD191
:1003800050F8042B51F8043B9A4209D1A2EB0C031C
:10039000934313EACC13DBD04FF00000704700BF4B
:1003A000D01A01BAB1FA81F101F0180122FA01F074
:1003B000CB40C1F12001DBB2C0B2C01A2CFA01F36C
:1003C000D11A914311EAC311E6D1704770477047C3
:1003D000704710B500F0BAFA006810BD10B50446B9
:1003E00000F0B4FA046010BD70B504468569006879
:1003F000C10601D5302600E02026C00707D070BD19
:10040000D4E9012130469047206A401C20626D1ECD
:10041000F6D570BD70B5044685690078C00707D170
:1004200070BDD4E9012120209047206A401C206241
:100430006D1EF6D570BD09684A0501D540B27047FA
:10044000C905FCD500B2704709684A0501D5C0B29C
:100450007047C905FCD580B2704770B50C4605469B
:10046000012A05D02878800600D5EA69002302E039
:10047000012305E05B1C934202D2E05C0028F9D125
:10048000A869E618C01AA861286A18442862284694
:10049000FFF7AAFF04E0D5E9012114F8010B90470A
:1004A000B442F8D32846FFF7B5FF70BD2DE9F041FF
:1004B0000646002410687529314616A510D0FFF7AE
:1004C000BAFF002802DA404213A507E031688A0724
:1004D00001D512A502E0490704D511A5012401E0C8
:1004E000FFF7B2FF00210A2206F1240709E0B0FB62
:1004F000F2FCB0FBF2F302FB1C00303078541846DB
:10050000491C0028F3D123462A463046BDE8F04175
:1005100000F065BA000000002D0000002B00000074
:100520002000000011680268006A530501D50870B8
:100530000AE0D30501D5088006E0130603D5C217EB
:10054000C1E9000200E008600120704701694A1C0F
:1005500002610878704700B58FB0CDE90131002104
:10056000059105497944CDE903101146684600F02C
:1005700029F90FB000BD0000E5FFFFFF0A6802F88F
:10058000010B0A60704700002DE9FF5F15468A469F
:100590000446DFF8AC80F8440027D8E900103E4656
:1005A000CDE9001010E03AF816106A4602A800F0F3
:1005B00029FE411C07D02178890603D5E269391844
:1005C00091420DD80744761C2078800602D5E06958
:1005D000B84205DDAE42E6DB3AF816000028E2D16B
:1005E000A069C01BA0612046FFF7FEFED8E90010FD
:1005F000CDE90010002017E03AF818106A4602A86A
:1006000000F000FEB0F1FF3F81460BD000250DF158
:10061000080B05E0D4E901211BF8050090476D1C8B
:100620004D45F7D308F10100B0428046E4DB206A73
:10063000384420622046FFF7EDFEBDE8FF9F000032
:100640003A9800002DE9F0418046D21D22F00702C1
:100650000025D2E90002F52915A614D0011E72F179
:10066000000106DA0023D0EB030063EB020211A6BF
:1006700008E0D8F800108B0701D50FA602E0490763
:1006800001D50EA601251146002408F1240704E037
:1006900000F060F930323A55641C50EA0102F7D19B
:1006A0002B46324621464046BDE8F04100F097B95E
:1006B000000000002D0000002B00000020000000C2
:1006C00030B4002100F1240408E002F00705D2084C
:1006D000303542EA4372DB086554491C52EA03058F
:1006E000F3D10468002310A2250707D5A40600D47F
:1006F00021B1C46901230DA2641EC46130BC00F0A5
:100700006EB910B5044621461068FFF79DFE0246FB
:100710002046BDE810400023D2E7D21D22F0070199
:10072000D1E90023CCE70000000000003000000009
:10073000F0B40D460188090502D5214C7C4402E045
:100740001F4C7C440E34002100F1240608E002F026
:100750000F071209E75D42EA03721B097754491C2F
:1007600052EA0307F3D102780023120704D5702D53
:1007700006D009B1022311342246F0BC00F02FB993
:1007800001231034F8E770B504460D462146106881
:10079000FFF75AFE024629462046BDE87040002376
:1007A000C6E7D21D22F00703D3E90023C0E70368A0
:1007B000126843F0200303600823C3610023B7E7F6
:1007C0009C9600002DE9F05F894604464FF0000A30
:1007D000DFF874B1FB44C0F820A02046E1688847E8
:1007E000002874D0252806D0D4E901219047206A3A
:1007F000401C2062F1E700265F462046E1688847FA
:100800002028054607DB312D05D2781910F8200C79
:1008100008B10643F1E7B00701D526F00406C4F895
:100820001CA00027C4F818A02A2D09D0284606F0DD
:1008300093FD38B304EB8708303DC8F8185019E031
:1008400059F8041B204604EB87029161E168884750
:10085000012F054618D1E069002820DA26F020068D
:100860001DE0D8F8180000EB800005EB40003038A0
:10087000C8F818002046E1688847054606F06CFD78
:100880000028EED1012F0AD02E2D08D12046E16894
:1008900088477F1C0546022F46F02006C4DBA0696E
:1008A000002803DA404246F00106A061F00701D0BB
:1008B00026F010066C2D0BD0682D09D04C2D39D0A8
:1008C0006A2D35D0742D35D07A2D33D016E038E02E
:1008D000E1682F4620468847B842054609D16C2F6B
:1008E00026D04FF48060E1680643204688470546DD
:1008F00004E06C2F1AD04FF4807006430DB3A5F1BD
:100900004100192802D8203546F400664A46294697
:10091000204626604E46FFF723FC80B101280BD00D
:10092000F61D26F0070000F1080956E74020E4E72D
:100930008020D8E70020D6E706F104094DE72846D5
:1009400052E7206ABDE8F09F2C96000000487047EF
:10095000D40C002030B5B0F10A024FEA900E71F1CC
:1009600000034EEA817EB0EB0E0061EB91014FEA8D
:10097000101E4EEA017E10EB0E0041EB11114FEA02
:10098000102E4EEA016E10EB0E0041EB11214FEAE2
:10099000104E4EEA014E10EB0E0041EB1141401893
:1009A00041F100014FEAD00040EA41704FEAD10125
:1009B00010EB80054FEA810444EA907444EB010493
:1009C0006D1944EB0404521BA3414FF0000348BFD0
:1009D0000A3200D530BD401C41F1000130BD2DE987
:1009E000F0470D4699469246044600F124080168F6
:1009F000880604D5E06921F01001216000E00120A3
:100A0000A84201DD471B00E00027A1697A1902EB2B
:100A10000900081AA0612078C00602D42046FFF71A
:100A2000E3FC002608E0D4E901211AF8060090470B
:100A3000206A401C761C20624E45F4DB2078C006FC
:100A40000AD52046FFF7D0FC06E0D4E9012130208A
:100A50009047206A401C2062381EA7F10107F4DC91
:100A600007E0D4E9012118F805009047206A401CEE
:100A70002062281EA5F10105F3DC2046FFF7CAFC21
:100A80002078000602D50220BDE8F0870120FBE7B0
:100A900070472DE9FF4F0C461E464FF0FF378BB0D5
:100AA000D2E90001DDF860800A908A46C1F30A5558
:100AB00005B93D46002108464FF00000BAF1000F8D
:100AC00000F4400005DA00EB80004FF4400101EA39
:100AD00050004FEA9059B9F1010F00DDB9460A986C
:100AE00050EA4A000ED044F61050A5F2FF354543B7
:100AF0002F14B8F1000F1ED07542291E1EDDC9F15A
:100B000000021CE0B8F1010F4FF0000001D03021CD
:100B100003E0F24305E02154401CB042FBDB3046C9
:100B20000022002121540B99C1F80880C1E900205E
:100B30000FB0BDE8F08FBD1B6D1CDEE74A4600DA42
:100B4000694206A800F0F4FB06AB93E8070003AB8C
:100B500083E8070050460A9900F06DFC8DE8070015
:100B6000A0F500501F3800900398002D0ADD42F2D6
:100B70001F014A460844002303A90390684600F079
:100B8000D6FE09E0A0F500504A461F38002303A90D
:100B90000390684600F0E0FE8DE807000004000CBA
:100BA00003D04FF0FF30410800E01046B8F1000FCD
:100BB00003D00022009215461EE0751E05D4FFF7F3
:100BC000C9FE303262556D1EF9D5B3460122084385
:100BD00002D000227F1C04E02078302801D10022BE
:100BE0007F1E002A099784D01DE0112D07DAFFF738
:100BF000B1FE303262556D1C50EA0102F5D1084356
:100C000002D00098C8B10EE00021681E05E0235C08
:100C1000625C63542254401E491C8142F7DBAB46A0
:100C2000A81B401E0990002004F80B000B98099A9D
:100C3000C0F80880C0E9002B7AE711264FF00008C1
:100C400057E72DE9F04F88460446D21D22F00701F0
:100C500091B0D1E90001CDE90A0106F02BFB024673
:100C60000B98C00F01D02D2007E02068810701D527
:100C70002B2002E0202101EAC000032A099001D0C4
:100C8000072A05DB03464146204600F011FB0BE135
:100C90002078800601D5E06900E00620B8F1650FF4
:100CA000814606D0B8F1660F18D0B8F1670F70D141
:100CB00031E00020B9F1110F009001DB112301E0B8
:100CC00009F101030AAA01A90CA8FFF7E2FEDDE978
:100CD0000C70002609F10105834647E001204B46D0
:100CE00000904FF000470AAA01A90CA8FFF7D1FE17
:100CF000DDE90DB00C995D46002610B909F101003F
:100D00000D18B9EB050003D4C0F1FF3609F1010558
:100D1000A5EB09002BE0B9F1010F01DA4FF0010951
:100D20000020B9F1110F0090484601DD112300E0C9
:100D300003460AAA01A90CA8FFF7ABFEDDE90C7077
:100D40004D4600268346207800070AD4AB4500DADA
:100D50005D4601A8012D04DD411911F8011C30295F
:100D600007D04F4502DA17F1040F04DA012082465A
:100D70000FE06D1EEEE7002F02DCED1B3E4403E0AA
:100D8000781CA84200DD7D1CB81B00F1010A4FF061
:100D900000472078000703D4AA4501DB4FF0FF3A53
:100DA0000021B7F1004F0DF143088DF8431024D016
:100DB00002202B23002F01DA7F422D230A21021E5D
:100DC000A0F1010000DC5FB197FBF1FC97FBF1F2B1
:100DD00001FB1C7C17460CF1300C08F801CDEEE746
:100DE000A8F1010003702188090501D5452100E023
:100DF0006521A0F1010800F8011C09980FA9A1EBD9
:100E00000807FF1D00B10120411901EBEA70A1693B
:100E10003844081A401EA0612078C00602D420463B
:100E2000FFF7E2FA099828B1D4E901219047206A36
:100E3000401C20622078C00622D52046FFF7D4FA55
:100E40001EE0002E04DBB34502DD01A8805D00E05A
:100E50003020D4E901219047206A401C2062761C92
:100E6000AAF101005FEA000A0AD100F01DFAC06889
:100E70000168405CD4E901219047206A401C20624F
:100E8000281EA5F10105DCDC07E0D4E9012118F8F2
:100E9000010B9047206A401C2062381EA7F1010711
:100EA000F3DC2046FFF7B6FA032011B041E600005C
:100EB0002DE9F04F04460D46D21D22F0070089B0FF
:100EC000D0E900974846394606F0F4F90246F80F93
:100ED00001D02D2307E02068810701D52B2302E0F4
:100EE000202101EAC0038DF820300BB1012000E081
:100EF0000020032A824601D0072A04DB2946204627
:100F000000F0D6F93FE12078800601D40D2500E0FD
:100F1000E569C7F30A560D2D49DA00214FEA175B40
:100F200008464FF00000002F00F4400007DA00EB05
:100F300080004FF4400100EBD07001EA60008115A1
:100F4000012901DD4FF0FF3100224FEA850CBCF191
:100F5000180F06D31346ACF118004FF08052C24070
:100F600003E04FF4801323FA0CF30CF10C0CBCF1EA
:100F7000200F04D3ACF1200C09FA0CF001E007FAC1
:100F80000CF000294FF0004801DD18B90FE00ED138
:100F900040450CD319EB02095F4121B9404502D10C
:100FA0009F4329EA0209BBEB175F00D0761C20881B
:100FB000000502D57B48784402E07A487844193825
:100FC00008AA302302F80A30037C0AF10101002E3E
:100FD0000AF1020A53546A4602DC4FF0300101E084
:100FE0004FF031014FF001088DF8001002D0A6F249
:100FF000FF3603E059EA470100D06B4E002D02DCBA
:101000002178090704D54FF002082E218DF8011030
:10101000C44600210BE0C7F303433F01C35C491CF6
:101020006D1E02F80830052908F1010801DA002DCB
:10103000F1DC00210CE000EB1973491C1B786D1EDC
:10104000082902F808304FEA091908F1010801DA05
:10105000002DF0DC21688B0602D516E0A8F101080E
:10106000E04505DD02EB080313F8013C302BF5D019
:10107000B8F1000F09DD02EB080313F8013C2E2B39
:1010800003D1090701D4A8F10108002D05DD3E2197
:1010900002F808106D1E08F10108407C002E02F8CD
:1010A000080008F1010804DA2D20764202F8080051
:1010B00002E02B2002F808000A214FF47A708642E1
:1010C00008F101080BDB96FBF0F3303302F808302F
:1010D00096FBF0F308F1010800FB136601E0642EB3
:1010E0000CDB642096FBF0F3303302F8083096FBFB
:1010F000F0F308F1010800FB136601E00A2E06DB9D
:1011000096FBF1F0303002F8080008F1010896FB78
:10111000F1F001FB1060303002F80800A16908F11D
:10112000010808EB050202EB0A00081AA06120780A
:10113000C00602D42046FFF757F9216A08AE01EB3A
:101140000A00206204E0D4E9012116F8010B90475F
:10115000BAF1010AF7D22078C00602D52046FFF77F
:1011600043F96E4609E016F8010B3E280FD0D4E98A
:1011700001219047206A401C2062B8F10108F2D298
:101180002046FFF747F909B00320BDE8F08F206A39
:101190002844206203E0D4E90121302090476D1EED
:1011A000EBD3F8E76E8E000002FCFFFF10B5436939
:1011B00013B1AFF3008001E0FFF74FF9012010BD3C
:1011C000127800F124010A7000224A700122EDE732
:1011D00011684FF0FF32E9E710B5436913B1AFF37F
:1011E000008001E0FFF7D0F9012010BD128800F166
:1011F000240182840022C2840122EDE711684FF0AD
:10120000FF32E9E770B516460C46054600F044F893
:10121000036893F80101012806D0FF2C0FD8185D50
:1012200068B101202C7070BDD3F807013246214609
:1012300003F2071303442846BDE8704018474FF0F7
:10124000FF3070BD00487047D40C00207546FFF792
:10125000F9FFAE4605006946534620F00700854673
:1012600018B020B5FEF7F4FFBDE820404FF00006AF
:101270004FF000074FF000084FF0000B21F007017E
:10128000AC46ACE8C009ACE8C009ACE8C009ACE8C1
:10129000C0098D467047000010B500F005F8001D2C
:1012A00010BD00BF416F000000487047F40C0020E3
:1012B0002DE9F0411F46044603260168072A01F480
:1012C000006004DB08B116A505E016A503E008B12F
:1012D00015A500E015A521F010002060A069C01E32
:1012E000A0610FB1401EA0612046FFF77DF84FB10D
:1012F000D4E9012138469047206A401C2062C01C76
:10130000206206E0206AFAE7D4E9012115F8010B12
:101310009047761EF8D22046FFF77CF8BDE8F081B2
:101320004E414E006E616E00494E4600696E660089
:101330002DE9F047814616468AB0354878440DC8F5
:101340008DE80D0032487844801C03AC0DC884E859
:101350000D0041F69B300844372190FBF1F290FBE1
:10136000F1F5A5F1800501FB12041B3C02D5644296
:10137000012000E00020DFF898A080460027FA4412
:10138000AAF1BE0A0EE0E0070AD03246684607EB33
:10139000470101230AEB810100F0DEFA8DE8070026
:1013A00064107F1C002CEED1194F7F44AE3F19E032
:1013B000E80715D007EB04100DF1180A90E80E00AD
:1013C0008AE80E00C068F04201D1981908903246B0
:1013D000012306A903A800F0BFFA03AB83E80700C6
:1013E0006D10641C002DE3D14FF0010332466946B5
:1013F000B8F1000F03A802D000F099FA01E000F064
:10140000ABFAC9E90001C9F808200AB0BDE8F087C5
:10141000788B000010B50446AFF300802046BDE88D
:101420001040FEF700BF000001491820ABBEFEE7E8
:101430002600020070475FEA400C08BF91F0000FE1
:101440004FEA8C234FEAC12243EA51514FEA1C5024
:1014500018BF00F5F0404FEA300018BF41F00041DE
:101460005FEA6C5C00F02980BCF1FF3F08BF40F0F0
:1014700080407047130C06BF12044FF0100C4FF061
:10148000000C130E04BF12020CF1080C130F04BF62
:1014900012010CF1040C930F04BF92000CF1020C2A
:1014A000D30F04BF52000CF1010C11464FF00002A3
:1014B000A0F11F00A0EB0C00704711F0004F08BF17
:1014C000704731F000413FF4D5AF0B0C06BF090463
:1014D0004FF0100C4FF0000C0B0E04BF09020CF182
:1014E000080C0B0F04BF09010CF1040C8B0F04BF97
:1014F00089000CF1020CCB0F04BF49000CF1010C68
:10150000CCF12003A0EB0C0022FA03F302FA0CF258
:1015100041EA030100F10100704720F07F4C80EAAE
:10152000030023F07F47ACEB070303F57C5300F087
:10153000004003F1FF032DE980494FEA154B09B440
:101540004FEA144325EA0B4E24EA03480FF204261F
:1015500006EB132749083E785FEA320203FB066771
:10156000C7F5000707FB06F64FEA54374FEAD646A1
:1015700006F1020607FB066CCCF1005C4FEA1C4743
:101580002CEA074C07FB06F40CFB06F504EB1546AA
:101590004FEA961634BF00204FF000404FEAD13793
:1015A00006FB07FC4FEA1C4C0CFB0BF7D21B03FBA2
:1015B0000CF761EB07010CFB0EF7B0EB074072EB89
:1015C00017420CFB08F734BFA2EB0742B2EB07420D
:1015D00061EB17414FEA0C444FEA910706FB07FC09
:1015E0004FEA1C4C0CFB0BF7B0EBC74072EB5732C9
:1015F00003FB0CF734BFA2EBC742B2EBC74261EB6F
:1016000057310CFB0EF7B0EBC70072EB57720CFBB7
:1016100008F734BFA2EBC702B2EBC70261EB577108
:10162000039F4FEA816141EA921104EBCC044FEA37
:10163000D1374FEA826206FB07FC42EA90124FEA7A
:1016400080604FEA1C4C0CFB0BF7D21B03FB0CF722
:1016500061EB07010CFB0EF7B0EB074072EB174292
:101660000CFB08F734BFA2EB0742B2EB074261EB79
:1016700017414FEA8C554FEA910704EB9C2406FB77
:1016800007FC4FEA1C4C0CFB0BF7B0EBC74072EBAE
:10169000573203FB0CF734BFA2EBC742B2EBC74291
:1016A00061EB57310CFB0EF7B0EBC70072EB5772D2
:1016B0000CFB08F734BFA2EBC702B2EBC70261EB29
:1016C000577115EB4C254FEA816141EA92114FEABF
:1016D00082624FEAD13742EA901206FB07FC44F1DE
:1016E00000044FEA80604FEA1C4C0CFB0BF7D21B46
:1016F00003FB0CF761EB07010CFB0EF7B0EB0740A7
:1017000072EB17420CFB08F734BFA2EB0742B2EBB7
:10171000074261EB174115EB1C154FEA813141EA95
:1017200092414FEA823242EA90424FEA80304FEAD9
:101730000C7644F1000448EA03434EEA0B484FF0AC
:10174000000EB2EB080C71EB030724BF624639466A
:101750004EEB0E0E4FF0000B0018524149414BEB7F
:101760000B0BB2EB080C71EB03077BF1000B24BFF2
:10177000624639464EEB0E0E4FF0000B00185241F8
:1017800049414BEB0B0BB2EB080C71EB03077BF100
:10179000000B24BF624639464EEB0E0E51EA02079B
:1017A00018BF46F0010616EB0E7655F1000254F113
:1017B000000103D5BDE88901BDE80088BDE88901C5
:1017C000BDE80048B619524141EB0101A3F1010304
:1017D000704780807F7E7D7C7B7A7978777676759E
:1017E0007473727171706F6E6E6D6C6C6B6A6A6916
:1017F0006868676666656464636362616160605FB0
:101800005F5E5E5D5D5C5C5B5B5A5A595958585728
:101810005756565555555454535352525251515090
:1018200050504F4F4F4E4E4D4D4D4C4C4C4B4B4BE3
:101830004A4A4A4949494848484747474746464629
:101840004545454444444443434343424242424164
:101850004141002B9C4630D477002BD01CB54FEA79
:10186000370703B44FF010004FF01001BAF1000F2A
:1018700006D0BCF1000FDCBF40F0080040F00801CA
:101880004FF000000FBCBDE810400BF1010BBBF1A5
:10189000010F08BF5FEA170722BF12F1010211F121
:1018A00001014FF0004143F1000300F0004043EA22
:1018B00000007047F9D35708D0E746EA064613F10F
:1018C000400F4FEA16461FDD13F1200FDFBF16430E
:1018D0000A46002120335B42BED0C3F1200746EA0E
:1018E000064602FA07F74FEA164646EA0706C3F12C
:1018F000200722FA03F201FA07F721FA03F14FF069
:10190000000342EA0702A7E746EA020646EA06465D
:101910004FEA164646EA0106BCBF46EA0646360CC2
:101920004FF000034FF000024FF0000194E72DE963
:10193000804C9A46934670B491E8380007C831EA63
:10194000400C48BF34EA430C03D5FFF7E6FDFFF730
:1019500080FFF0BCBDE8008C2DE9804C9A46934690
:1019600070B491E8380007C810F0804F08BF13F03A
:10197000804F03D100F005F8FFF76BFFF0BCBDE826
:10198000008C20F07F4780EA030023F07F4C07EBB8
:101990000C03A3F57C5300F00040A3F1FE0392F08A
:1019A000000F00F0B38095F0000F00F077802DE974
:1019B00001494FEA11404FEA144621EA004800FB72
:1019C00006FC24EA064708FB06F607FB08F800FBBE
:1019D00007F718EB06484CEB164C4FEA124B18EB86
:1019E00007484FEA15464CEB174022EA0B4E0BFB1B
:1019F00006FC25EA06470EFB06F607FB0EFE0BFB70
:101A000007F71EEB064E4CEB164C4FF000061EEB94
:101A1000074E4CEB174B18EB0B0840F1000018EB8E
:101A20000E0B58EB000840F100008F1A4FF0000138
:101A30003CBFC943661B14BFB5EB040C00213CBF7F
:101A4000C943F61B4FEA17444EEA8E0E27EA0445B7
:101A50004FEA1C4704FB07622CEA074C05FB07F71B
:101A60000CFB05F604FB0CFC16EB074642EB174299
:101A700016EB0C4642EB1C421BEB060658EB02022F
:101A8000414146EA9E0601D5BDE80189B619524199
:101A900041EB0101A3F10103BDE801894FEA1445BF
:101AA0004FEA114724EA054621EA074C05FB07F4F3
:101AB00006FB07F70CFB06F105FB0CFC11EB0741DD
:101AC00044EB17444FEA124711EB0C4144EB1C4422
:101AD00022EA074C05FB07F206FB07F70CFB06F6AC
:101AE00005FB0CFC16EB074642EB174216EB0C46C7
:101AF00042EB1C456A1854F1000148BF7047B61903
:101B0000524141EB0101A3F10103704795F0000F31
:101B100037D04FEA11424FEA144721EA024624EA3D
:101B2000074C02FB07F106FB07F70CFB06F402FB70
:101B30000CFC14EB074441EB17414FEA154714EB3B
:101B40000C4441EB1C4125EA074C02FB07F506FB60
:101B500007F70CFB06F602FB0CFC16EB074645EB01
:101B6000174516EB0C4645EB1C42121951F10001CA
:101B700048BF7047B619524141EB0101A3F101037F
:101B800070474FEA14454FEA114724EA054621EA17
:101B9000074C05FB07F106FB07F70CFB06F24FF0BD
:101BA000000605FB0CFC12EB074241EB174112EB60
:101BB0000C4251EB1C4148BF7047921841EB0101A8
:101BC000A3F10103704700BFFEE7000010B5024813
:101BD00000F074FA10BD00005802002010B5024851
:101BE00000F06CFA10BD00001402002030B590F82F
:101BF00040500124AC40C56B6C600468636044686D
:101C0000102C04D10468A2600468E16003E0046859
:101C1000A1600468E26030BD704772B600BFFEE7A5
:101C20000021074AD1610749096941F00401054AC9
:101C300011611146096941F04001116170470000CE
:101C4000A0020020002002400021074AD16107497C
:101C5000096941F00201054A1161114648610969AB
:101C600041F0400111617047A002002000200240B5
:101C70000022054BDA61054A126942F00102034B6A
:101C80001A61018070470000A0020020002002407D
:101C900000201E49C96801F0100139B11C49C96909
:101CA00041F002011A4AD16140F010001749C96899
:101CB00001F0040139B11649C96941F00101144A22
:101CC000D16140F004001149C96901F0010169B115
:101CD0000F49C96941F004010D4AD16100BF0B49A8
:101CE000C96921F00101094AD16100BF00BF40F27A
:101CF0000111884206D10549C96921F00101034A51
:101D0000D16101E00149C86000BF70470020024076
:101D1000A002002070B5044600F0A4FD054609E0CD
:101D2000601C38B124B100F09DFD401BA04201D9D8
:101D3000032070BD1248C06800F001000028EFD1F8
:101D40000F48C06800F0200020B100BF20200C49DF
:101D5000C86000BF0A48C06800F0100048B90848D1
:101D6000C06900F0010020B90548C06800F0040017
:101D700018B1FFF78DFF0120DBE70020D9E7000055
:101D8000002002402DE9F041114D2C68B4F1A53F2F
:101D900015D105F10408D8F800C008F10408D8F8F6
:101DA000005008F10408D8F8006008F10408D8F8D9
:101DB0000070C0F800C00D6016601F7005E00025BF
:101DC00005600D60156001251D70BDE8F081000003
:101DD00000FC00082DE9F0418AB005460E46174682
:101DE000984600F089FB00200690164808900120D4
:101DF000099005A906A800F0C5FA20B100F01AFB69
:101E00000AB0BDE8F0814FF0A53000900195029630
:101E10000397CDF8108000240CE05DF824C0094839
:101E200000EB840162460023022000F00DFB00B1AC
:101E300002E0641C052CF0DB00BF00F0FBFA00BFE1
:101E4000DEE7000000FC00081CB5062269461F20E2
:101E500002F098FE9DF801109DF8002041EA022151
:101E600008B206F01FFF04464FF0685106F07AFFF3
:101E70001D4908609DF803109DF8022041EA0221E7
:101E800008B206F00FFF04464FF0685106F06AFFF3
:101E9000164908609DF805109DF8042041EA0221CA
:101EA00008B206F0FFFE04464FF0685106F05AFFF4
:101EB0000F4908600F4801680B48006807F0E2F816
:101EC000094908600C4801680848006807F0DAF81A
:101ED00006490860094801680548006807F0D2F81B
:101EE000034908601CBD00002000002024000020E1
:101EF00028000020480000204C0000205000002056
:101F00001CB506226946252002F03CFE9DF8011012
:101F10009DF8002041EA022108B206F0C3FE044603
:101F20001D4906F01FFF1D4908609DF803109DF82C
:101F3000022041EA022108B206F0B4FE0446164926
:101F400006F010FF164908609DF805109DF8042062
:101F500041EA022108B206F0A5FE04460E4906F049
:101F600001FF10490860104801680C48006807F03C
:101F700089F80A4908600D4801680948006807F0B7
:101F800081F8074908600A4801680648006807F0B8
:101F900079F8044908601CBD00007A3D2C0000203F
:101FA0003000002034000020380000203C000020D9
:101FB000400000200146002291F82100022808D0AC
:101FC0000420886300BF002081F8200000BF0120AA
:101FD00070470868006820F00E000B6818600868F9
:101FE000006820F001000B68186091F84030012073
:101FF0009840CB6B5860012081F8210000BF002081
:1020000081F8200000BF1046E2E7000070B50446EA
:10201000002594F82100022803D00420A0630125A4
:1020200048E02068006820F00E0021680860206801
:10203000006820F00100216808601F49206888427C
:1020400001D1012026E01C4914312068884201D1C9
:1020500010201FE0184928312068884201D18015DE
:1020600018E015493C312068884201D1801411E004
:10207000114950312068884202D14FF4803009E084
:102080000D4964312068884202D14FF4801001E08C
:102090004FF08070084908394860012084F8210019
:1020A00000BF002084F8200000BF606B10B1204604
:1020B000616B8847284670BD0800024070B5044631
:1020C000E06B05682068066894F84010042088409A
:1020D0002840002846D006F00400002842D020689E
:1020E000006800F0200028B92068006820F0040093
:1020F0002168086057492068884201D1042027E000
:10210000544914312068884201D1402020E05149CF
:1021100028312068884201D1001519E04D493C3131
:102120002068884202D14FF4804011E04949503183
:102130002068884202D14FF4802009E0454964318B
:102140002068884202D14FF4800001E04FF08060A7
:10215000404908394860E06A00287AD02046E16AA0
:10216000884776E094F84010022088402840A0B3C9
:1021700006F0020088B32068006800F0200040B933
:102180002068006820F00A0021680860012084F8B7
:10219000210030492068884201D1022028E02D49E1
:1021A00014312068884201D1202021E029492831BA
:1021B0002068884201D140151AE026493C31206848
:1021C000884202D14FF4005012E022495031206879
:1021D000884203D14FF400300AE017E01D49643112
:1021E0002068884202D14FF4001001E04FF00070E7
:1021F00018490839486000BF002084F8200000BF5B
:10220000A06A30B32046A16A884722E094F84010C3
:10221000082088402840E0B106F00800C8B12068D6
:10222000006820F00E002168086094F8401001203A
:102230008840E16B48600120A06384F8210000BF62
:10224000002084F8200000BF206B10B12046216BD5
:10225000884770BD080002400146002209B90120EC
:102260007047164B0868C01A1423B0FBF3F08000C7
:10227000086412480838C863022081F82100086801
:10228000026843F6F0708243D1E901031843CB683A
:1022900018430B6918434B6918438B691843CB6982
:1022A000184302430868026000208863012081F817
:1022B0002100002081F8200000BFD1E70800024083
:1022C0002DE9F04104460D4616461F464FF0000822
:1022D00000BF94F82000012802D10220BDE8F0815F
:1022E000012084F8200000BF94F8210001282CD19F
:1022F000022084F821000020A0632068006820F0FC
:102300000100216808603B46324629462046FFF717
:102310006DFCE06A30B12068006840F00E00216872
:1023200008600BE02068006820F004002168086065
:102330002068006840F00A00216808602068006892
:1023400040F001002168086006E000BF002084F82A
:10235000200000BF4FF002084046BFE770B50446BA
:1023600000F080FA06462546681C10B10448007843
:10237000054400BF00F076FA801BA842FAD370BD76
:10238000180000202DE9F04104460E4601270025E3
:1023900000BF2648007E012802D10220BDE8F0815E
:1023A00001202249087600BF2068022813D14CF290
:1023B0005030FFF7AFFC90BB0120FFF731FC4CF22F
:1023C0005030FFF7A7FC07461948006920F00400C9
:1023D0001749086123E04CF25030FFF79BFCF0B93D
:1023E0004FF0FF303060A56812E02846FFF72CFC64
:1023F0004CF25030FFF78EFC07460D48006920F084
:1024000002000B4908610FB1356007E005F58065F2
:10241000D4E9021001EB8020A842E6D800BF00BF3B
:1024200000200249087600BF3846B7E7A002002026
:10243000002002400348006940F080000149086123
:1024400000207047002002402DE9FE4F05468B46D4
:1024500017469846012600240020029000BF244819
:10246000007E012802D10220BDE8FE8F0120204914
:10247000087600BF4CF25030FFF74CFC064686BB96
:10248000012D02D10120029006E0022D02D102208E
:10249000029001E00420029000241EE02201B946CF
:1024A000C24648465146FDF7E5FE80B20190022043
:1024B00000FB04B000900199FFF7DAFB4CF25030BA
:1024C000FFF728FC06460B48006920F00100094987
:1024D000086106B104E0601CC4B202988442DDDBEE
:1024E00000BF00BF00200249087600BF3046BBE7AE
:1024F000A00200200020024000200849096901F0E4
:10250000800151B10649054A5160064951601146A2
:10251000096901F0800101B10120704700200240EB
:1025200023016745AB89EFCD2DE9F847034600222B
:1025300094466EE14FF0010808FA02F4D1F80080E9
:1025400008EA0400A0427DD1DFF8DCA2D1F80480C3
:10255000A8EB0A09D0453AD014DCB8F1030F50D0EB
:1025600009DCB8F1000F31D0B8F1010F1CD0B8F17F
:10257000020F49D120E0B8F1110F18D0B8F1120FB5
:1025800042D11EE0B9F5881F25D006DCB9F5803FA1
:1025900020D0B9F5801F37D11AE0B9F5001F18D047
:1025A000B9F5041F30D117E0D1F80CC02DE0D1F8F7
:1025B0000C8008F1040C28E0D1F80C8008F1080C1C
:1025C00023E0D1F80C8008F10C0C1EE000BF00BF26
:1025D00000BF00BF00BF00BFD1F80880B8F1000FF6
:1025E00002D14FF0040C0BE0D1F80880B8F1010FD4
:1025F00003D14FF0080C1C6102E04FF0080C5C6145
:1026000003E04FF0000C00E000BF00BFFF2801D83E
:10261000984601E003F104084646FF2802D84FEA35
:10262000820803E0A2F108084FEA88084746D6F876
:1026300000804FF00F0909FA07F928EA09080CFA97
:1026400007F900E088E048EA0908C6F80080D1F8F8
:10265000048008F08058B8F1805F7DD100BFDFF8BA
:10266000CC81D8F8188048F00108DFF8C091C9F88B
:102670001880C846D8F8188008F00108CDF8008006
:1026800000BF00BF4FEAB9384FEA920958F8295005
:102690004FEA82784FEA18794FF00F0808FA09F8E4
:1026A00025EA0805DFF88881434502D14FF000088C
:1026B00016E0DFF88081434502D14FF001080FE0BA
:1026C000DFF87481434502D14FF0020808E0DFF8DB
:1026D0006C81434502D14FF0030801E04FF004083C
:1026E0004FEA82794FEA197908FA09F848EA0505AC
:1026F000DFF84C814FEA920948F82950D1F804805C
:1027000008F48018B8F5801F0AD1DFF83881D8F8AE
:10271000008048EA0008DFF82C91C9F8008009E041
:10272000DFF82081D8F8008028EA0008DFF814914B
:10273000C9F80080D1F8048008F40018B8F5001F2B
:1027400010D1DFF8008108F10408D8F8008048EAC9
:102750000008DFF8F09000E05AE009F10409C9F838
:1027600000800DE0DFF8DC8008F10408D8F8008074
:1027700028EA0008DFF8CC9009F10409C9F80080C4
:10278000D1F8048008F40038B8F5003F0ED1DFF826
:10279000B480A8F10408D8F8008048EA0008DFF8FF
:1027A000A490A9F10409C9F800800DE0DFF8948035
:1027B000A8F10408D8F8008028EA0008DFF884901F
:1027C000A9F10409C9F80080D1F8048008F4803820
:1027D000B8F5803F0ED1DFF86C80A8F10808D8F872
:1027E000008048EA0008DFF85C90A9F10809C9F800
:1027F00000800DE0DFF84C80A8F10808D8F80080D0
:1028000028EA0008DFF83C90A9F10809C9F800801F
:10281000521CD1F8008028FA02F8B8F1000F7FF4BA
:1028200089AEBDE8F88700000000111000100240DA
:1028300000080140000C014000100140001401405C
:102840000800014008040140024693680B400BB1A8
:10285000012000E0002070470AB1016101E00B0493
:1028600003617047014800687047000010000020B5
:1028700070B504460CB9012070BD94F83D0028B92C
:10288000002084F83C00204600F046FB242084F819
:102890003D002068006820F0010021680860206881
:1028A000006840F40040216808602068006820F457
:1028B00000402168086000F009FD05465C49606839
:1028C000884206D85B48854201D2012007E00020FB
:1028D00005E05948854201D2012000E0002001288E
:1028E00000D1C9E75548B5FBF0F62068406820F0F4
:1028F0003F003043216848604D496068884201D8F4
:10290000701C07E04FF4967070434FF47A71B0FB7F
:10291000F1F0401C2168096A21F03F010843216859
:10292000086243496068884214D8681E616849009B
:10293000B0FBF1F0401CC0F30B00042801D20420CE
:102940003DE0681E61684900B0FBF1F0401CC0F337
:102950000B0034E0A06838B9681E616801EB4101E2
:10296000B0FBF1F0401C0AE0681E616801EBC10297
:1029700002EB0111B0FBF1F0401C40F48040C0F3C9
:102980000B0008B901201AE0A06848B9681E616808
:1029900001EB4101B0FBF1F0401CC0F30B000CE077
:1029A000681E616801EBC10202EB0111B0FBF1F09E
:1029B000401CC0F30B0040F4804040F4004021680C
:1029C000C9694CF6FF72914308432168C861D4E994
:1029D000070108432168096821F0C0010843216804
:1029E0000860D4E9031008432168896848F2FF327F
:1029F0009143084321688860D4E9050108432168B0
:102A0000C96821F0FF0108432168C8602068006898
:102A100040F001002168086000202064202084F834
:102A20003D000020206384F83E0000BF24E7000042
:102A3000A086010080841E0000093D0040420F0076
:102A40002DE9FE4F04460F4690469946DDE90CAB52
:102A50000E9E00200290FFF705FF054694F83D000A
:102A6000202872D119230122CE492046009501F079
:102A700034FF10B10220BDE8FE8F00BF94F83C0087
:102A8000012801D10220F6E7012084F83C0000BFB4
:102A90002068006800F0010028B92068006840F054
:102AA0000100216808602068006820F40060216847
:102AB0000860222084F83D00402084F83E00002079
:102AC0002064C4F824A0A4F82AB0608D2085B648FC
:102AD000E0624B46424639462046CDE9006501F0AA
:102AE000A9FD08B10120C6E7208D88B900BF0020EC
:102AF000019020684069019020688069019000BFC2
:102B000000BF2068006840F40070216808604BE056
:102B1000208D01281AD12068006820F48060216887
:102B2000086072B600BF00200190206840690190E3
:102B300020688069019000BF00BF2068006840F4F1
:102B400000702168086062B62EE029E1208D02281D
:102B500019D12068006840F400602168086072B6EE
:102B600000BF0020019020684069019020688069C2
:102B7000019000BF00BF2068006820F480602168D9
:102B8000086062B610E02068006840F48060216848
:102B9000086000BF00200190206840690190206813
:102BA0008069019000BF00BFEBE0208D03287DD835
:102BB000208D012815D12A463146204601F069FFB3
:102BC00008B1012057E720680069616A0870606AEF
:102BD000401C6062208D401E2085608D401E6085F7
:102BE000CFE0208D02282CD1334600226F492046A9
:102BF000009501F072FE08B101203CE772B6206832
:102C0000006840F400702168086020680069616A0B
:102C10000870606A401C6062208D401E2085608DB7
:102C2000401E608562B620680069616A0870606A4B
:102C3000401C6062208D401E2085608D401E608596
:102C40009FE03346002259492046009501F045FE99
:102C500008B101200FE72068006820F48060216837
:102C6000086072B620680069616A0870606A401C7A
:102C70006062208D401E2085608D401E60854C481E
:102C800000681921B0FBF1F04FF47A71B0FBF1F05C
:102C9000C0EBC00000EB8000029000BF0298401E15
:102CA00002900298A8B90020206300E039E02020BB
:102CB00084F83D00002084F83E00206C40F02000A5
:102CC000206462B600BF002084F83C0000BF0120F1
:102CD000D1E620684069C0F380000028DED020687B
:102CE000006840F400702168086020680069616A2B
:102CF0000870606A401C6062208D401E2085608DD7
:102D0000401E608562B620680069616A0870606A6A
:102D1000401C6062208D401E2085608D401E6085B5
:102D20002FE02A463146204601F0B3FE08B10120CB
:102D3000A1E620680069616A0870606A401C6062F0
:102D4000208D401E2085608D401E60852068406972
:102D5000C0F38000A8B1208D032805D12068006849
:102D600020F480602168086020680069616A08704A
:102D7000606A401C6062208D401E2085608D401E70
:102D80006085208D00287FF410AF202084F83D005E
:102D9000002084F83E0000BF84F83C0000BF6AE6D3
:102DA000022068E6020010000000FFFF040001009E
:102DB0001C0000202DE9FC5F04460F469046994612
:102DC000DDE90CAB0E9EFFF74DFD054694F83D0086
:102DD00020287DD1192301224D492046009501F07C
:102DE0007CFD10B10220BDE8FC9F00BF94F83C00C0
:102DF000012801D10220F6E7012084F83C0000BF41
:102E00002068006800F0010028B92068006840F0E0
:102E10000100216808602068006820F400602168D3
:102E20000860212084F83D00402084F83E00002006
:102E30002064C4F824A0A4F82AB0608D2085354809
:102E4000E0624B46424639462046CDE9006501F036
:102E5000A1FC08B10120C6E731E02A4631462046F0
:102E600001F05CFE50B1206C042805D12068006898
:102E700040F40070216808600120B4E7606A0078BF
:102E800021680861606A401C6062208D401E2085B8
:102E9000608D401E608520684069C0F3800070B17D
:102EA000208D60B1606A007821680861606A401C0A
:102EB0006062208D401E2085608D401E6085208DC3
:102EC0000028CAD12A463146204601F0D3FC00E052
:102ED0001CE050B1206C042805D12068006840F443
:102EE00000702168086001207DE72068006840F4D8
:102EF000007021680860202084F83D00002084F8DC
:102F00003E0000BF84F83C0000BF6CE702206AE787
:102F1000020010000000FFFF10B586B0044600203C
:102F2000029003900490059016492068884226D1AB
:102F300000BF1548806940F00800134988610846C1
:102F4000806900F00800019000BF00BF4FF44060AE
:102F50000290122003900320059002A90B48FFF76E
:102F6000E3FA00BF0848C06940F480000649C86120
:102F70000846C06900F48000019000BF00BF06B0A1
:102F800010BD00000058004000100240000C01403D
:102F900003480068034909780844014908607047FC
:102FA000100000201800002010B50848006840F00C
:102FB000100006490860032000F0A8F80F2000F078
:102FC00007F800F02BF8002010BD000000200240A0
:102FD00070B504460E4800784FF47A71B1FBF0F0FA
:102FE0000C490968B1FBF0F5284600F0BFFD08B1B7
:102FF000012070BD102C07D200222146501E00F087
:1030000047F80548046001E00120F2E70020F0E7FE
:10301000180000201C0000201400002008B500BF8C
:103020001148806940F001000F49886108468069B5
:1030300000F00100009000BF00BF00BF0846C0695B
:1030400040F08050C8610846C06900F08050009090
:1030500000BF00BF00BF0549486820F0E06040F0B5
:103060000070486000BF08BD001002400000014031
:1030700001460846002809DB00F01F0301229A40A0
:1030800043099B0003F1E023C3F8002100BF704710
:103090002DE9F05F80460D461646002704F032F910
:1030A000074639462A46334601F00700C0F1070AB1
:1030B000BAF1040F02D94FF0040A01E0C0F1070A87
:1030C000D14600F1040ABAF1070F02D24FF0000A0C
:1030D00001E0A0F1030AD4464FF0010A0AFA09FA06
:1030E000AAF1010A0AEA020A0AFA0CFA4FF0010BE5
:1030F0000BFA0CFBABF1010B0BEA030B4AEA0B04D6
:103100002146404604F006F9BDE8F09F00BF00F0FC
:103110000702064B19684FF6FF031940044B0B4397
:1031200043EA0221014B196000BF70470CED00E03B
:103130000000FA0570B504460D460CB9012070BDBB
:103140005A48006800F00700A8420ED257480068AD
:1031500020F007002843554908600846006800F041
:103160000700A84201D00120E9E7207800F0020022
:1031700002281DD1207800F00400042805D14C4815
:10318000406840F4E0604A494860207800F0080058
:10319000082805D14648406840F4605044494860DA
:1031A0004348406820F0F000A16808434049486067
:1031B000207800F0010078B36068012806D13C480F
:1031C000006800F4003090B90120B8E76068022878
:1031D00006D13748006800F0007040B90120AEE722
:1031E0003348006800F0020008B90120A7E7304822
:1031F000406820F00300616808432D494860FFF7EC
:1032000031FB064609E0FFF72DFB801B41F28831B8
:10321000884202D9032092E707E02548406800F081
:103220000C006168B0EB810FEDD12048006800F020
:103230000700A8420ED91D48006820F00700284367
:103240001A4908600846006800F00700A84201D04B
:10325000012074E7207800F00400042807D1144806
:10326000406820F4E060E168084311494860207834
:1032700000F00800082808D10D48406820F460508C
:10328000216940EAC1000A49486000F03FF8084956
:103290004968C1F30311074A515CC84006490860F8
:1032A00006480068FFF794FE002048E7002002402F
:1032B00000100240689200081C000020140000204A
:1032C00001480068704700001C00002000B5FFF7AF
:1032D000F7FF04494968C1F30221034A515CC84021
:1032E00000BD0000001002407892000800B5FFF712
:1032F000E7FF04494968C1F3C221034A515CC84051
:1033000000BD0000001002407892000870B5002156
:103310000022002400230020134D696801F00C05F1
:10332000F5B1042D02D0082D19D101E00F4819E0A4
:103330000F4DC1F38346AB5D01F4803555B10A4DA5
:103340006D68C5F340450B4E725D084D5D43B5FB9E
:10335000F2F402E0084D03FB05F4204602E000BF52
:10336000024800BF00BF70BD0010024000127A008A
:10337000569200086692000800093D00F8B5044620
:103380000CB90120F8BD207800F00100002878D0A9
:10339000F848406800F00C0004280CD0F54840685C
:1033A00000F00C00082811D1F248406800F4803089
:1033B000B0F5803F0AD1EF48006800F400300028E3
:1033C0005FD0606800285CD10120DBE700BF606847
:1033D000B0F5803F06D1E748006840F48030E54909
:1033E000086028E0606858B9E248006820F480303E
:1033F000E04908600846006820F4802008601AE070
:103400006068B0F5A02F0BD1DA48006840F4802046
:10341000D84908600846006840F4803008600AE037
:10342000D448006820F48030D2490860084600681B
:1034300020F48020086000BF606888B1FFF712FAAE
:10344000054606E0FFF70EFA401B642801D9032069
:1034500098E7C848006800F400300028F2D010E077
:10346000FFF700FA054606E0FFF7FCF9401B642869
:1034700001D9032086E7BF48006800F40030002827
:10348000F2D1207800F00200022857D1B9484068F4
:1034900000F00C0050B1B748406800F00C0008285C
:1034A00018D1B448406800F4803098B9B148006839
:1034B00000F0020020B12069012801D0012061E75D
:1034C000AC48006820F0F800616940EAC100A949F1
:1034D000086033E02069E8B10120A7490860FFF7E0
:1034E000C1F9054606E0FFF7BDF9401B022801D9E6
:1034F000032047E79F48006800F002000028F2D050
:103500009C48006820F0F800616940EAC1009949D0
:10351000086013E0002098490860FFF7A3F905460A
:1035200006E0FFF79FF9401B022801D9032029E795
:103530009048006800F002000028F2D1207800F0E6
:10354000080008282DD1A069B8B101208B49086076
:10355000FFF788F9054606E0FFF784F9401B0228CB
:1035600001D903200EE78348406A00F002000028DA
:10357000F2D0012003F03CFA13E000207F490860FC
:10358000FFF770F9054606E0FFF76CF9401B0228CB
:1035900001D90320F6E67748406A00F002000028CF
:1035A000F2D1207800F00400042873D1002771487C
:1035B000C06900F0805070B900BF6E48C06940F02B
:1035C00080506C49C8610846C06900F08050009086
:1035D00000BF00BF01276A48006800F48070B0B9DE
:1035E0006748006840F4807065490860FFF73AF961
:1035F000054606E0FFF736F9401B642801D9032091
:10360000C0E65F48006800F480700028F2D000BF78
:10361000E068012806D15748006A40F0010055498A
:10362000086227E0E06858B95248006A20F00100BB
:10363000504908620846006A20F00400086219E058
:10364000E06805280BD14B48006A40F00400494966
:1036500008620846006A40F0010008620AE0454836
:10366000006A20F00100434908620846006A20F021
:103670000400086200BFE068A0B1FFF7F3F8054658
:1036800009E0FFF7EFF8401B41F28831884202D988
:10369000032077E622E03748006A00F002000028A5
:1036A000EFD012E0FFF7DEF8054608E0FFF7DAF8A2
:1036B000401B41F28831884201D9032062E62D483F
:1036C000006A00F002000028F0D1012F05D129483E
:1036D000C06920F080502749C86100BFE069C8B3C5
:1036E0002448406800F00C00082860D0E0690228F7
:1036F00048D1002020490866FFF7B4F8054606E0E7
:10370000FFF7B0F8401B022801D903203AE6194818
:10371000006800F000700028F2D1206AB0F5803F08
:1037200007D11448406820F40030A16808431149CB
:103730004860D4E9080108430E49496821F474112E
:1037400008430C49486001200B490866FFF78AF8D6
:10375000054607E03DE0FFF785F8401B022801D948
:1037600003200FE60348006800F000700028F2D044
:103770002FE000000010024000004242800442425C
:1037800000700040002014490866FFF76BF80546FA
:1037900006E0FFF767F8401B022801D90320F1E596
:1037A0000E48006800F000700028F2D111E0E069D6
:1037B000012800D1E6E50948466806F48031206A10
:1037C000814204D106F47011606A814201D0012067
:1037D000D8E50020D6E5000000004242001002407B
:1037E00010B504460CB9012010BD606A38B9606894
:1037F000B0F5827F00D105E00021E16102E0002107
:10380000216161610021A16294F8510028B9002072
:1038100084F85000204600F043F8022084F851005C
:103820002068006820F0400021680860A08800F44B
:103830008270218901F404410843A18901F40061E7
:103840000843217C01F002010843217D01F00101C0
:103850000843218B01F400710843217F01F03801F6
:1038600008432021095D01F080010843218D01F406
:1038700000510843216808600421A06901EA104052
:10388000216848602068C06920F400602168C86130
:1038900000206065012084F851000020A4E70000AA
:1038A00010B586B004460020029003900490059065
:1038B0001949206888422DD100BF1848806940F41A
:1038C0008050164988610846806900F48050019054
:1038D00000BF00BF00BF0846806940F00400886157
:1038E0000846806900F00400019000BF00BFA020DE
:1038F0000290022003900320059002A90848FEF7D9
:1039000013FE4020029000200390049002A9044876
:10391000FEF70AFE06B010BD003001400010024064
:10392000000801402DE9FE4F04460F4690461D4613
:103930000C9E01200190FEF795FF814694F851B04E
:1039400060680290AA46BBF1010F0BD00298B0F557
:10395000827F04D1A06810B9BBF1040F02D002200D
:10396000BDE8FE8F1FB1B8F1000F00D00DB90120E6
:10397000F6E700BF94F85000012801D10220EFE7DC
:10398000012084F8500000BF94F85100042802D0B0
:10399000052084F8510000206065C4F83880E58770
:1039A000A5872763E586A586206460642068006893
:1039B00000F04000402805D02068006840F040003A
:1039C00021680860E068B0F5006F52D1606810B1FE
:1039D000BAF1010F09D1206B00882168C860206B03
:1039E000801C2063E08E401EE0863BE020688068FB
:1039F00000F00200022810D1E08E70B10198012879
:103A00000BD1206B00882168C860206B801C20636C
:103A1000E08E401EE086002001902068806800F063
:103A2000010068B1E08F58B12068C068A16B0880C0
:103A3000A06B801CA063E08F401EE08701200190F6
:103A4000FEF710FFA0EB0900B0420BD3701C48B189
:103A5000012084F8510000BF002084F8500000BF0E
:103A600003207DE7E08E0028C0D1E08F0028BDD183
:103A700052E0606810B1BAF1010F09D1206B0078F3
:103A800021680873206B401C2063E08E401EE08696
:103A90003CE02068806800F00200022810D1E08E2F
:103AA00070B1019801280BD1206B00782168087350
:103AB000206B401C2063E08E401EE08600200190B9
:103AC0002068806800F0010068B1E08F58B120687C
:103AD000C068A16B0870A06B401CA063E08F401E03
:103AE000E08701200190FEF7BDFEA0EB0900B04287
:103AF00001D3701C00B94EB9012084F8510000BFF9
:103B0000002084F8500000BF032029E7E08E002841
:103B1000BFD1E08F0028BCD14A463146204602F092
:103B20007BFF40B12020606500BF002084F850007A
:103B300000BF012014E7A06850B900BF002000902A
:103B40002068C068009020688068009000BF00BFB7
:103B5000012084F8510000BF002084F8500000BF0D
:103B6000606D08B10120FBE60020F9E670B504465F
:103B70002546681EB0F1807F01D301200FE0681E4A
:103B80004FF0E02148610F214FF0FF3003F0C2FBFE
:103B900000204FF0E021886107200861002070BDFF
:103BA0007047704730B502460B4600BF92F83C00A4
:103BB000012801D1022030BD012082F83C0000BF65
:103BC000022082F83D00106844681068816824F083
:103BD00070041868044310684460104D1068A842CF
:103BE0000BD01068B0F1804F07D00D4D1068A8427F
:103BF00003D00C4D1068A84205D121F0800158680F
:103C0000014310688160012082F83D0000BF002060
:103C100082F83C0000BF00BFCDE70000002C01404F
:103C2000000400400008004010B504460CB9012013
:103C300010BD94F83D0028B9002084F83C002046CF
:103C400000F026F8022084F83D00211D206802F0D3
:103C5000EFFF012084F8460000BF84F83E000121F8
:103C60003F200155402001554120015500BF00BFB4
:103C7000012084F84200432001554420015545208D
:103C8000015500BF012084F83D000020D0E700006E
:103C900038B504462068B0F1804F16D100BF1848EF
:103CA000C06940F001001649C8610846C06900F0CB
:103CB0000100009000BF00BF002211461C20FFF74A
:103CC000E7F91C20FFF7D4F919E00E492068884273
:103CD00015D100BF0A48C06940F002000849C86118
:103CE0000846C06900F00200009000BF00BF00223B
:103CF00011461D20FFF7CCF91D20FFF7B9F938BD9B
:103D00000010024000040040014691F83D000128E7
:103D100001D001207047022081F83D000868C0688A
:103D200040F001000B68D860124B086898420BD035
:103D30000868B0F1804F07D00F4B0868984203D055
:103D40000E4B086898420CD10868806800F00702A2
:103D5000062A0CD00868006840F001000B68186063
:103D600005E00868006840F001000B68186000205A
:103D7000D0E70000002C0140000400400008004093
:103D800001460868C06820F001000A68D06000BFE2
:103D90000868006A41F21112104050B90868006AC0
:103DA0009210104028B90868006820F001000A68E5
:103DB000106000BF012081F83D00002070472DE910
:103DC000F04104460D46002700BF94F83C0001284E
:103DD00002D10220BDE8F081012084F83C0000BF40
:103DE000022084F83D002068866826F0770626F4D5
:103DF0007F46206886602868502833D00CDC202855
:103E000050D004DC00284BD0102851D149E0302894
:103E100049D040284CD139E060282DD0702807D0F7
:103E2000B0F5805F03D0B0F5005F41D10DE041E017
:103E3000D5E902136A68206802F03CFF20688668B2
:103E400046F077062068866034E0D5E902136A6898
:103E5000206802F02FFF2068806840F480402168CD
:103E6000886027E0EA686968206802F037FF50211F
:103E7000206802F02AFF1DE0EA686968206802F005
:103E800040FF6021206802F020FF13E0EA686968C3
:103E9000206802F023FF4021206802F016FF09E0AD
:103EA00000BF00BF00BF2968206802F00EFF01E0DC
:103EB000012700BF00BF012084F83D0000BF0020A3
:103EC00084F83C0000BF384684E7704770B504466C
:103ED0002068C5682068066906F00200022819D12A
:103EE00005F00200022815D1401F21680861012059
:103EF00020772068806900F0030018B12046FFF7A2
:103F0000E4FF05E0204600F097F8204600F095F821
:103F10000020207706F00400042819D105F00400E1
:103F2000042815D1C0432168086102202077206849
:103F3000806900F4407018B12046FFF7C6FF05E025
:103F4000204600F079F8204600F077F8002020772E
:103F500006F00800082819D105F00800082815D136
:103F6000C04321680861042020772068C06900F000
:103F7000030018B12046FFF7A8FF05E0204600F037
:103F80005BF8204600F059F80020207706F010007A
:103F9000102819D105F01000102815D1C043216850
:103FA0000861082020772068C06900F4407018B1CB
:103FB0002046FFF78AFF05E0204600F03DF8204646
:103FC00000F03BF80020207706F0010048B105F032
:103FD000010030B16FF0010021680861204600F057
:103FE0002DF806F08000802809D105F08000802897
:103FF00005D1C043216808612046FFF7D1FD06F0D6
:104000004000402809D105F04000402805D1C043B8
:1040100021680861204600F029F806F020002028D9
:1040200009D105F02000202805D1C043216808618E
:104030002046FFF7B6FD70BD7047704710B50446C7
:104040002068B0F1804F05D106480078401C054932
:10405000087005E004492068884201D100F0ECFEB8
:1040600010BD000001000020000400407047F8B5BA
:1040700004460D46164694F8420020282DD105B17D
:104080000EB90120F8BD0120206300206063324694
:104090002946204603F070F80746206B012819D105
:1040A00000BF0020009020680068009020684068F1
:1040B000009000BF00BF00BF00BF21680C3151E875
:1040C000001F41F0100021680C3141E80002002A75
:1040D000F3D100E001273846D4E70220D2E7704749
:1040E000704701460022002391F8412091F84230A8
:1040F00042EA0300704700002DE9F84F04462068AB
:1041000005682068C668206847694FF00009CA46FC
:1041100005F00F09B9F1000F0AD105F0200038B100
:1041200006F0200020B1204602F029FFBDE8F88FFC
:10413000B9F1000F7BD007F0010018B906F49070B8
:10414000002874D005F0010030B106F4807018B179
:10415000606C40F00100606405F0040030B107F0CD
:10416000010018B1606C40F00200606405F00200CC
:1041700030B107F0010018B1606C40F004006064D9
:1041800005F0080048B106F0200010B907F0010062
:1041900018B1606C40F008006064606C002845D085
:1041A00005F0200028B106F0200010B1204602F0F2
:1041B000E6FE20684069C0F3801A606C00F00800D9
:1041C00010B9BAF1000F2CD0204602F07FFE206813
:1041D000406900F0400000B300BF00BF2168143107
:1041E00051E8001F21F040002168143141E800022D
:1041F000002AF3D100BFE06B50B17748E16B486310
:10420000E06BFDF703FF88B1E06B416B88470DE081
:104210002046FFF765FF09E009E02046FFF760FF51
:1042200004E02046FFF75CFF002060647EE7206B1F
:10423000012877D105F01000002873D006F0100097
:104240000028FAD000BF002000902068006800908D
:1042500020684068009000BF00BF2068406900F0FF
:10426000400000285FD0E06B006840681FFA80F8CB
:10427000B8F1000F55D0A08D404552DDA4F82E8036
:10428000E06B8069202843D000BF00BF21680C315B
:1042900051E8001F21F4807021680C3141E80002D0
:1042A000002AF3D100BF00BF00BF2168143151E8DC
:1042B000001F21F001002168143141E80002002AAA
:1042C000F3D100BF00BF00BF2168143151E8001FC7
:1042D00021F040002168143141E80002002AF3D1A6
:1042E00000BF202084F842000020206300BF00BFF0
:1042F00021680C3151E8001F21F0100021680C31B9
:1043000041E80002002AF3D100BFE06BFDF752FE46
:1043100002206063A08DE28D801A81B22046FFF7F3
:10432000DEFE03E742E0A08DE18D401A1FFA80F81F
:10433000E08DD0B3B8F1000F37D000BF00BF2168C7
:104340000C3151E8001F21F4907021680C3141E8D4
:104350000002002AF3D100BF00BF00BF2168143162
:1043600051E8001F21F001002168143141E80002EA
:10437000002AF3D100BF202084F8420000202063EF
:1043800000BF00BF21680C3151E8001F21F0100070
:1043900021680C3141E80002002AF3D100BF02205D
:1043A000606341462046FFF79AFEBFE605F08000B5
:1043B00030B106F0800018B1204602F041FFB5E6AA
:1043C00005F0400030B106F0400018B1204602F080
:1043D000B3FDABE600BFA9E62B6D000810B504469F
:1043E0000CB9012010BDA06900B100E000BF94F835
:1043F000410028B9002084F84000204600F02AF847
:10440000242084F841002068C06820F4005021680E
:10441000C860204602F032FE2068006920F4904017
:10442000216808612068406920F02A0021684861FD
:104430002068C06840F400502168C86000206064B3
:10444000202084F8410084F842000020606300BF0F
:10445000C8E7000010B586B0044600200290039023
:104460000490059037492068884268D100BF3648DB
:10447000C06940F400303449C8610846C06900F49E
:104480000030019000BF00BF00BF0846806940F0C7
:10449000040088610846806900F00400019000BFB4
:1044A00000BF04200290022003900320059002A97F
:1044B0002648FEF739F80820029000200390049067
:1044C00002A92248FEF730F821482249086010204E
:1044D000486000211F4881608021C1600021016186
:1044E00041618161C161FDF7B7FE08B1FDF795FB40
:1044F00000BF1848A063446200BF1548143816492D
:104500000860002048600021134881608021C1605C
:104510000021016141618161C161FDF79DFE08B12A
:10452000FDF77BFB00BF0C48E063446200BF002244
:1045300011462620FEF7ACFD2620FEF799FD06B0B9
:1045400010BD00000044004000100240000801407F
:10455000800002401402002058020020704770477B
:10456000F7B50446154694F84100202836D1019845
:1045700000B10DB90120FEBD01982062A584E5843B
:1045800000206064212084F841001548A16B8862F6
:104590001448A16BC8621448A16B08630020A16B8A
:1045A000486301AE23681A1D31682B46A06BFDF7E6
:1045B00087FE6FF040002168086000BF00BF2168DF
:1045C000143151E8001F41F080002168143141E8A6
:1045D0000002002AF3D100BF0020CCE70220CAE786
:1045E000676E0008BF6E00083F6D00087047704797
:1045F00000BFFEE7014608684069C0F38020B0B103
:104600006FF480600A68506100200863202081F800
:104610003D00002081F83E00086C40F00400086472
:1046200000BF002081F83C0000BF0120704700203F
:10463000FCE700002DE9F84304460F46154699466D
:10464000DDE908862068006840F480602168086021
:104650002068006840F480702168086043460022AA
:104660004FF001112046009600F037F960B1206844
:10467000006800F48070B0F5807F02D14FF40070C4
:1046800020640320BDE8F88307F0FE00216808617C
:10469000334642463E49204600F07EF908B10120EB
:1046A000F0E700BF0020009020684069009020687B
:1046B0008069009000BF00BF32464146204600F0AE
:1046C0002DFA50B1206C042805D12068006840F410
:1046D0000070216808600120D4E7B9F1010F03D10F
:1046E000E8B22168086117E0C5F307202168086176
:1046F00032464146204600F011FA50B1206C0428A1
:1047000005D12068006840F400702168086001202D
:10471000B8E7E8B22168086132464146204600F019
:10472000FDF950B1206C042805D12068006840F4E0
:104730000070216808600120A4E72068006840F448
:10474000807021680860434600224FF00111204626
:10475000009600F0C2F858B12068006800F480703C
:10476000B0F5807F02D14FF400702064032089E708
:10477000F8B240F00100216808613346424604491E
:10478000204600F009F908B101207BE7002079E715
:10479000020001002DE9F843044688461546994673
:1047A000DDE908672068006840F4807021680860CF
:1047B000334600224FF001112046009700F08DF89B
:1047C00060B12068006800F48070B0F5807F02D18D
:1047D0004FF4007020640320BDE8F88308F0FE0069
:1047E000216808613B4632462149204600F0D4F852
:1047F00008B10120F0E700BF002000902068406968
:10480000009020688069009000BF00BF3A463146A2
:10481000204600F083F950B1206C042805D12068AF
:10482000006840F40070216808600120D4E7B9F105
:10483000010F03D1E8B22168086117E0C5F3072032
:10484000216808613A463146204600F067F950B1C8
:10485000206C042805D12068006840F400702168AD
:1048600008600120B8E7E8B2216808610020B3E7DA
:104870000200010070B504460D46164625E02046AC
:10488000FFF7B8FE08B1012070BD681CE8B1FDF764
:10489000E9FF801BA84200D8BDB920684069C0F379
:1048A000800090B900202063202084F83D00002083
:1048B00084F83E00206C40F02000206400BF0020FF
:1048C00084F83C0000BF0120DEE720684069C0F3A7
:1048D00080000028D3D00020D6E72DE9F04104461F
:1048E0000D4617461E46DDF8188038E0701CA8B348
:1048F000FDF7B8FFA0EB0800B04200D876BBC5F3C7
:10490000074001280AD120684069A9B20840A9B22D
:10491000884201D101200BE0002009E02068806975
:10492000A9B20840A9B2884201D1012000E00020CC
:10493000B84214D100202063202084F83D000020DC
:1049400084F83E00206C40F02000206400BF00206E
:1049500084F83C0000BF0120BDE8F081FFE7C5F30B
:10496000074001280AD120684069A9B20840A9B2CD
:10497000884201D101200BE0002009E02068806915
:10498000A9B20840A9B2884201D1012000E000206C
:10499000B842ABD00020DFE72DE9F04104460D46D8
:1049A00016461F4658E020684069C0F38020E8B1F1
:1049B0002068006840F40070216808606FF480602F
:1049C0002168486100202063202084F83D000020F9
:1049D00084F83E00206C40F00400206400BF0020FA
:1049E00084F83C0000BF0120BDE8F081701C90B34A
:1049F000FDF738FFC01BB04200D866BBC5F30740C7
:104A000001280AD120684069A9B20840A9B28842A9
:104A100001D101200BE0002009E020688069A9B2E3
:104A20000840A9B2884201D1012000E0002090B9DD
:104A300000202063202084F83D00002084F83E0000
:104A4000206C40F02000206400BF002084F83C006F
:104A500000BF0120C8E7FFE7C5F3074001280AD1DE
:104A600020684069A9B20840A9B2884201D101205A
:104A70000BE0002009E020688069A9B20840A9B2D3
:104A8000884201D1012000E0002000288BD00020C6
:104A9000AAE770B504460D46164637E0206840691F
:104AA000C0F30010A0B16FF0100021684861002031
:104AB0002063202084F83D00002084F83E00206C14
:104AC000206400BF002084F83C0000BF012070BDBE
:104AD000FDF7C8FE801BA84200D8BDB92068406918
:104AE000C0F3801090B900202063202084F83D009E
:104AF000002084F83E00206C40F02000206400BFBD
:104B0000002084F83C0000BF0120E0E720684069F5
:104B1000C0F380100028C1D00020D8E770B504464B
:104B20000D46164625E02046FFF764FD08B101203A
:104B300070BD681CE8B1FDF795FE801BA84200D847
:104B4000BDB920684069C0F3C01090B9002020634F
:104B5000202084F83D00002084F83E00206C40F0C6
:104B60002000206400BF002084F83C0000BF01202A
:104B7000DEE720684069C0F3C0100028D3D00020D1
:104B8000D6E700002DE9F04105460E461746002203
:104B900010210C48FDF760FE45F0800000F014F88D
:104BA000002405E0FF2000F00FF83055601C84B2AF
:104BB000BC42F7DB012210210248FDF74DFEBDE8A3
:104BC000F08100000008014001B582B00020019092
:104BD0000A20012301AA02A900900348FEF7A2FEC1
:104BE0009DF804000EBD0000E400002070B50446EE
:104BF0000D46002210210848FDF72EFE04F07F002C
:104C0000FFF7E2FF2846FFF7DFFF012210210248ED
:104C1000FDF722FE70BD0000000801402DE9F041C3
:104C200000260027B0464FF4FA74002517E0FDF780
:104C300067F91C480168304603F0CAFE06461A4868
:104C40000168384603F0C4FE07461848016840462C
:104C500003F0BEFE80460220FDF780FB6D1CA542DE
:104C6000E5DB204604F01EF805462946304603F0F1
:104C700023FF0F490860204604F014F80546294632
:104C8000384603F019FF0B490860204604F00AF883
:104C900005462946404603F00FFF07490860BDE876
:104CA000F08100002C0000203000002034000020A3
:104CB000380000203C0000204000002010B50122F8
:104CC00010214948FDF7C8FD3220FDF747FB0021C0
:104CD0007620FFF78BFF01211120FFF787FF32209D
:104CE000FDF73CFB0A240CE0012240497520FFF748
:104CF00049FF3E480078472800D107E00A20FDF729
:104D00002DFB201EA4F10101CCB2EDD100BF00218A
:104D10007620FFF76BFF06214F20FFF767FF062184
:104D20005020FFF763FF0F214E20FFF75FFF1E208B
:104D3000FDF714FB00217620FFF758FF5621512084
:104D4000FFF754FF11215220FFF750FF0D21532090
:104D5000FFF74CFF00216320FFF748FF0821652083
:104D6000FFF744FF01217620FFF740FFA0210B2031
:104D7000FFF73CFF0C210846FFF738FF90210D207C
:104D8000FFF734FF80210E20FFF730FF022176204D
:104D9000FFF72CFF18210320FFF728FF90210420A4
:104DA000FFF724FF80210520FFF720FF0021762058
:104DB000FFF71CFF1A215120FFF718FF1521532080
:104DC000FFF714FF66215220FFF710FF0021762025
:104DD000FFF70CFF0F214E20FFF708FF3220FDF7F1
:104DE000BDFA0248007810BD0008014044000020D0
:104DF000024908780021014A11707047870000209D
:104E0000024908780021014A11707047860000208D
:104E100010B502210748FDF717FD08B9012010BDA4
:104E200001210448FDF710FD08B90220F7E7002032
:104E3000F5E700000008014010B523480078401C49
:104E4000214908700846007814283CDB00200870CF
:104E50001E4800781E490870FFF7DAFF1B490870EA
:104E60000846007800B30846007819490978884256
:104E700014D1184800881430164908800846008864
:104E8000B0F5FA6F1FDB14480078E0B90F480078DE
:104E90001249087001201049087014E000200D49E3
:104EA00008800D4908700EE00948007830B10A48C2
:104EB000007818B9064800780949087000200549AB
:104EC00008800549087010BD880000208C00002073
:104ED0008D0000208A0000208E0000208700002026
:104EE000860000201FB504460020039064200121A5
:104EF00003AA0B46CDE90021029039226021204609
:104F0000FDF79EFD10B1FF2004B010BD9DF80C0010
:104F1000FAE770B505462846FFF7E4FF0446FF2C84
:104F200000D00CB9FF2070BD80221C21284600F063
:104F300083F808B10120F6E71420FDF70FFA2022CC
:104F40001B21284600F078F864221A21284600F038
:104F500073F80020E7E700002DE9F04387B007462B
:104F600021221B21384600F067F810B107B0BDE8D8
:104F7000F0830A20FDF7F2F90A20092104AA01238F
:104F8000CDE900210290002260213846FDF758FD4E
:104F900000284DD19DF8100000039DF8111040EA43
:104FA00001109DF8161040EA11149DF8120000033C
:104FB0009DF8131040EA01109DF8171040EA1115F2
:104FC0009DF8140000039DF8151040EA01109DF8AB
:104FD000181040EA1116204603F07CFE81464FF07F
:104FE000924104F04FF880464FF08D4103F064FD8C
:104FF00010490860284603F06DFE81464FF092414B
:1050000004F040F880464FF08D4103F055FD09490A
:105010004860304603F05EFE81464FF0924104F056
:1050200031F880464FF08D4103F046FD014988601C
:1050300000BF9BE7B00C002037B584B005460C4696
:105040006420012106AA0B46CDE9002102902246E8
:1050500060212846FDF7AEFE10B1012007B030BD3B
:105060000020FBE708B500BF0E48406940F0010092
:105070000C4948610846406900F00100009000BFFB
:1050800000BF002211461020FEF702F81020FDF7A5
:10509000EFFF002211461120FDF7FAFF1120FDF766
:1050A000E7FF08BD0010024000B585B00020019068
:1050B00002900390049000BF3148806940F01000D6
:1050C0002F4988610846806900F01000009000BFF9
:1050D00000BF00BF0846806940F020008861084694
:1050E000806900F02000009000BF00BF00BF0846AC
:1050F000806940F0040088610846806900F004007F
:10510000009000BF00BF00BF0846806940F0080063
:1051100088610846806900F00800009000BF00BF69
:10512000012210211748FDF797FB00224FF4407130
:105130001548FDF791FB032001900020029001200B
:10514000039001A90F48FDF7EFF91020019001200D
:105150000290002003900320049001A90948FDF764
:10516000E3F94FF440700190112002900120039068
:105170000320049001A90448FDF7D6F905B000BD4D
:105180000010024000080140000C014010B50B481F
:105190000B4908600B484860002109488160C160E4
:1051A0004FF480410161002141618161C16101626F
:1051B000FDF75EFB08B1FCF730FD10BD0058004064
:1051C00090000020801A060010B50F480F490860B3
:1051D0004FF48270486000210C488160C160022158
:1051E000016101214161490281610821C161002100
:1051F0000162416281620A21C162FEF7F1FA08B1DF
:10520000FCF70BFD10BD000000300140E400002061
:1052100000B587B00020039004900590069001909F
:1052200002904FF080401549086040F2CF2048605E
:1052300000211248816040F2E731C1600021016124
:1052400080218161FEF7F0FC08B1FCF7E6FC4FF429
:105250008050039003A90948FEF7B1FD08B1FCF79F
:10526000DCFC00200190029001A90448FEF79AFCA2
:1052700008B1FCF7D2FC07B000BD00003C010020E3
:1052800000B587B00020039004900590069001902F
:1052900002901548154908604720486000211348CE
:1052A000816040F2E731C1600021016180218161AC
:1052B000FEF7BAFC08B1FCF7B0FC4FF48050039045
:1052C00003A90A48FEF77BFD08B1FCF7A6FC002005
:1052D0000190029001A90548FEF764FC08B1FCF7B3
:1052E0009CFC07B000BD00000004004084010020C9
:1052F00010B50B480B4908604FF416504860002168
:1053000008488160C16001610C2141610021816117
:10531000C161FFF763F808B1FCF77FFC10BD000026
:1053200000440040CC0100202DE9FC5F754CDFF803
:10533000D8A12546D3462646504601904FF0000995
:105340003220FDF70BF871A001F002FC00F0D2FF53
:10535000062375A20021084601F014FA062376A25E
:105360001021002001F00EFA01F0EEFA002753E0C0
:105370007548FFF7F1FD75490868214603F0BEFC4A
:1053800001D27248046871490868514603F0B6FDBD
:1053900002D26E48D0F800A06C494868294603F054
:1053A000ADFC01D26948456868494868594603F030
:1053B000A5FD02D26548D0F804B06449886831463A
:1053C00003F09CFC01D261488668604988680199B5
:1053D00003F094FD02D25D488068019009F101005C
:1053E0001FFA80F9142099FBF0F100FB119078B9B5
:1053F00040F2DC50C01B642190FBF1F80620022330
:10540000424620210090002001F096F901F09CFA1C
:105410000A20FCF7A3FF7F1C40F2DC508742A7DB89
:105420005146204603F0D4FA07464FF0804103F07E
:1054300043FB4649C8605946284603F0C9FA074667
:105440004FF0804103F038FB404908613046019934
:1054500003F0BEFA07464FF0804103F02DFB3B49B5
:1054600048613BA001F074FB384B5A691969D86850
:105470003D4B1B78FCF7AEFC3CA001F069FB00F053
:1054800039FF06233DA20021084601F07BF90623DF
:105490003DA21021002001F075F901F055FA6420B9
:1054A000FCF75CFF3CA001F053FB0A20FCF756FF21
:1054B0002649C86803F060FA07463A460B463CA006
:1054C00001F046FB0A20FCF749FF2049086903F078
:1054D00053FA07463A460B463AA001F039FB0A2038
:1054E000FCF73CFF1949486903F046FA07463A467B
:1054F0000B4639A001F02CFB4FF4FA60FCF72EFFAD
:10550000BDE8FC9F00007A4400007AC453746172C5
:1055100074204D61672043616C6962726174696FC8
:105520006E2E2E2E0D0A00004D61672043616C69BE
:1055300062726174696E6700526F746174652038BD
:10554000207368617065210090000020B00C00207D
:10555000536176696E6720746F20466C6173682EA4
:105560002E2E0D0A000000000C000020536176650D
:1055700020446F6E65210D0A0000000043616C69D4
:105580006220446F6E650000536176656420746F1D
:1055900020466C61736800004D61672043616C694F
:1055A00062726174696F6E20446F6E65210D0A002E
:1055B0004F666673657420583A20252E34660D0AAE
:1055C000000000004F666673657420593A20252E4E
:1055D00034660D0A000000004F6666736574205A39
:1055E0003A20252E34660D0A000000002DE9FF4FF9
:1055F0008DB0814614461D460021284603F01EFB4F
:1056000009D100211A9803F019FB04D100211B983D
:1056100003F014FB7ED01B99084603F0A3FB069011
:105620001A99084603F09EFB29460490284603F089
:1056300099FB0390049903F0CBF90590069903F0C8
:10564000C7F9079002F074F882465146284603F0E5
:1056500089FB054651461A9803F084FB1A9051467F
:105660001B9803F07FFB1B90E1480168E14800684C
:1056700003F078FB0790E0480168E048006803F019
:1056800071FB0690079903F0FDFC0C90DA48016865
:10569000D748006803F066FB0790D8480168D548F2
:1056A000006803F05FFB0690079903F091F90B90F7
:1056B000D1480168006803F055FB0790CD480168A8
:1056C000006803F04FFB4FF07C51059003F0DAFCCB
:1056D0000690079903F07CF90A900B991B9803F048
:1056E00041FB07900A991A9803F03CFB0690079932
:1056F00003F0C8FC834628460A9903F033FB079061
:105700000C991B9803F02EFB0690079903F0BAFC46
:10571000099000E081E00C991A9803F023FB0790B0
:1057200028460B9903F01EFB0690079903F0AAFC8C
:1057300008900021B248006803F0E0FB4BD25946C4
:10574000AF48006803F00EFB0690AE48016806986B
:1057500003F008FB0790AC480168079803F038F99C
:10576000A9490860A6480999006803F0FBFA069069
:10577000A4480168069803F0F5FA0790A348016869
:10578000079803F025F9A14908609D480899006829
:1057900003F0E8FA06909B480168069803F0E2FAE5
:1057A00007909B480168079803F012F99849086030
:1057B00095480168484603F00BF981469348016813
:1057C0000E9803F005F90E9091480168204603F009
:1057D000FFF8044606E000208B4908608B4908600A
:1057E0008B49086059468B4803F0BCFA494607903C
:1057F00003F0EEF881468748099903F0B3FA079061
:105800000E9903F0E5F80E908248089903F0AAFA81
:105810002146079003F0DCF804467A4801684FF00F
:105820007C5003F09FFA4946079003F09BFA8146AB
:10583000744801684FF07C5003F094FA07900E9979
:1058400003F090FA0E906F4801684FF07C5003F01F
:1058500089FA2146079003F085FA044665480668F0
:10586000664807686248D0F80080214662480068B0
:1058700003F078FA069040460E9903F073FA04900C
:1058800087F000404946029003F06CFA03900499B7
:1058900003F0F8FB0590069903F0F4FB07905548D8
:1058A0000168079803F094F85249086052480E992D
:1058B000006803F057FA21460690404603F052FA7A
:1058C00031460490484603F04DFA0390049903F0E2
:1058D0007FF80590069903F0D5FB079047480168CB
:1058E000079803F075F84549086043480168484641
:1058F00003F038FA21460690384603F033FA049054
:1059000030460E9903F02EFA0390049903F0BAFB87
:105910000590069903F05CF80790354801680798F0
:1059200003F056F8324908604146484603F01AFA37
:10593000069038460E9903F015FA21460490304639
:1059400003F010FA0390049903F042F805900699C9
:1059500003F098FB079028480168079803F038F88F
:105960002549086008460168006803F0FBF90690C5
:105970001F480168006803F0F5F904901F480168AA
:10598000006803F0EFF902901A480168006803F01C
:10599000E9F90190029903F01BF80390049903F0D0
:1059A00017F80590069903F013F8079001F0C0FE70
:1059B000824651460F48006803F0D4F90D4908604B
:1059C00051460E48006803F0CDF90C490860514675
:1059D0000748006803F0C6F90549086051460648C3
:1059E000006803F0BFF90449086011B0BDE8F08F0A
:1059F0006000002058000020640000205C000020AF
:105A00005400002074000020680000206C0000207A
:105A1000700000200000484310B504460E480F49AE
:105A200008604FF07E500E49086000200D49086064
:105A30000D4908600D4908600D4908600D4908606E
:105A40000D4908600D49087021464FF07E5003F063
:105A500033F80B49086010BD0AD7233C54000020DE
:105A6000580000205C00002060000020640000203E
:105A7000680000206C0000207000002084000020DE
:105A8000740000202DE9F04740480168006803F0E9
:105A900069F980463E480168006803F063F9814671
:105AA0004FF07C5103F05BFA0746414603F0EAFAF7
:105AB0000546384801683548006803F053F9074641
:105AC000334801683448006803F04CF98046394691
:105AD00002F07EFF0646294601F0D8FC04462F4915
